S00F00004E6572664156522E73726563A1
S113000014C02EC02DC02CC02BC02AC029C028C0AB
S113001027C026C025C024C023C022C021C020C0C0
S11300201FC01EC01DC01CC01BC011241FBECFE5B5
S1130030D1E0DEBFCDBF10E0A0E6B0E0E2E3F1E046
S113004002C005900D92A838B107D9F720E0A8E8BE
S1130050B0E001C01D92AA39B207E1F702D067C02F
S1130060CFCF80E690E009D007D009D080E790E0B8
S113007004D081E090E00895089508950895E8E893
S1130080F0E08AE090E09183808322E030E03383E3
S113009022831582148220E830E0378326839187F7
S11300A0808781E090E0938782871586148617867F
S11300B016860F2EF8E9EF2EF0E0FF2EF02D81E0EA
S11300C090E0DCDFC8E8D0E08E018A819B81019753
S11300D09B838A83892B79F4EE81FF81309719F011
S11300E0888199810995D8018D919C9111971396D6
S11300F09C938E9312972896CE15DF0529F7DFCFB0
S11301002091980030919900820F931F883E23E03C
S1130110920728F490939900809398000895109280
S11301209900109298008EE790E0A7DF0895F89464
S1050130FFCFFB
S1130132456E746572696E67206D61696E2E0A0080
S113014245786974696E67206E6F772E0A00546170
S10B0152736B20312E0A00003A
S9030000FC
